{
  "_format": "hh-sol-artifact-1",
  "contractName": "GuestBook",
  "sourceName": "contracts/GuestBook.sol",
  "abi": [
    {
      "inputs": [],
      "stateMutability": "nonpayable",
      "type": "constructor"
    },
    {
      "inputs": [
        {
          "internalType": "string",
          "name": "_message",
          "type": "string"
        }
      ],
      "name": "addEntry",
      "outputs": [],
      "stateMutability": "nonpayable",
      "type": "function"
    },
    {
      "inputs": [
        {
          "internalType": "uint256",
          "name": "",
          "type": "uint256"
        }
      ],
      "name": "entries",
      "outputs": [
        {
          "internalType": "string",
          "name": "message",
          "type": "string"
        },
        {
          "internalType": "address",
          "name": "sender",
          "type": "address"
        },
        {
          "internalType": "uint256",
          "name": "timestamp",
          "type": "uint256"
        }
      ],
      "stateMutability": "view",
      "type": "function"
    },
    {
      "inputs": [],
      "name": "getEntries",
      "outputs": [
        {
          "components": [
            {
              "internalType": "string",
              "name": "message",
              "type": "string"
            },
            {
              "internalType": "address",
              "name": "sender",
              "type": "address"
            },
            {
              "internalType": "uint256",
              "name": "timestamp",
              "type": "uint256"
            }
          ],
          "internalType": "struct GuestBook.Entry[]",
          "name": "",
          "type": "tuple[]"
        }
      ],
      "stateMutability": "view",
      "type": "function"
    }
  ],
  "bytecode": "0x60806040523480156200001157600080fd5b50600060405180606001604052806040518060400160405280601081526020017f5468652067656e6573697320706f73740000000000000000000000000000000081525081526020013373ffffffffffffffffffffffffffffffffffffffff1681526020014281525090806001815401808255809150506001900390600052602060002090600302016000909190919091506000820151816000019081620000ba91906200038e565b5060208201518160010160006101000a81548173ffffffffffffffffffffffffffffffffffffffff021916908373ffffffffffffffffffffffffffffffffffffffff16021790555060408201518160020155505062000475565b600081519050919050565b7f4e487b7100000000000000000000000000000000000000000000000000000000600052604160045260246000fd5b7f4e487b7100000000000000000000000000000000000000000000000000000000600052602260045260246000fd5b600060028204905060018216806200019657607f821691505b602082108103620001ac57620001ab6200014e565b5b50919050565b60008190508160005260206000209050919050565b60006020601f8301049050919050565b600082821b905092915050565b600060088302620002167fffffffffffffffffffffffffffffffffffffffffffffffffffffffffffffffff82620001d7565b620002228683620001d7565b95508019841693508086168417925050509392505050565b6000819050919050565b6000819050919050565b60006200026f6200026962000263846200023a565b62000244565b6200023a565b9050919050565b6000819050919050565b6200028b836200024e565b620002a36200029a8262000276565b848454620001e4565b825550505050565b600090565b620002ba620002ab565b620002c781848462000280565b505050565b5b81811015620002ef57620002e3600082620002b0565b600181019050620002cd565b5050565b601f8211156200033e576200030881620001b2565b6200031384620001c7565b8101602085101562000323578190505b6200033b6200033285620001c7565b830182620002cc565b50505b505050565b600082821c905092915050565b6000620003636000198460080262000343565b1980831691505092915050565b60006200037e838362000350565b9150826002028217905092915050565b620003998262000114565b67ffffffffffffffff811115620003b557620003b46200011f565b5b620003c182546200017d565b620003ce828285620002f3565b600060209050601f831160018114620004065760008415620003f1578287015190505b620003fd858262000370565b8655506200046d565b601f1984166200041686620001b2565b60005b82811015620004405784890151825560018201915060208501945060208101905062000419565b868310156200046057848901516200045c601f89168262000350565b8355505b6001600288020188555050505b505050505050565b610b7080620004856000396000f3fe608060405234801561001057600080fd5b50600436106100415760003560e01c806317be85c31461004657806317ce42bd14610064578063b30906d414610080575b600080fd5b61004e6100b2565b60405161005b91906105a9565b60405180910390f35b61007e60048036038101906100799190610714565b610203565b005b61009a60048036038101906100959190610789565b6102cb565b6040516100a99392919061081e565b60405180910390f35b60606000805480602002602001604051908101604052809291908181526020016000905b828210156101fa57838290600052602060002090600302016040518060600160405290816000820180546101099061088b565b80601f01602080910402602001604051908101604052809291908181526020018280546101359061088b565b80156101825780601f1061015757610100808354040283529160200191610182565b820191906000526020600020905b81548152906001019060200180831161016557829003601f168201915b505050505081526020016001820160009054906101000a900473ffffffffffffffffffffffffffffffffffffffff1673ffffffffffffffffffffffffffffffffffffffff1673ffffffffffffffffffffffffffffffffffffffff168152602001600282015481525050815260200190600101906100d6565b50505050905090565b600060405180606001604052808381526020013373ffffffffffffffffffffffffffffffffffffffff16815260200142815250908060018154018082558091505060019003906000526020600020906003020160009091909190915060008201518160000190816102749190610a68565b5060208201518160010160006101000a81548173ffffffffffffffffffffffffffffffffffffffff021916908373ffffffffffffffffffffffffffffffffffffffff16021790555060408201518160020155505050565b600081815481106102db57600080fd5b90600052602060002090600302016000915090508060000180546102fe9061088b565b80601f016020809104026020016040519081016040528092919081815260200182805461032a9061088b565b80156103775780601f1061034c57610100808354040283529160200191610377565b820191906000526020600020905b81548152906001019060200180831161035a57829003601f168201915b5050505050908060010160009054906101000a900473ffffffffffffffffffffffffffffffffffffffff16908060020154905083565b600081519050919050565b600082825260208201905092915050565b6000819050602082019050919050565b600081519050919050565b600082825260208201905092915050565b60005b838110156104135780820151818401526020810190506103f8565b60008484015250505050565b6000601f19601f8301169050919050565b600061043b826103d9565b61044581856103e4565b93506104558185602086016103f5565b61045e8161041f565b840191505092915050565b600073ffffffffffffffffffffffffffffffffffffffff82169050919050565b600061049482610469565b9050919050565b6104a481610489565b82525050565b6000819050919050565b6104bd816104aa565b82525050565b600060608301600083015184820360008601526104e08282610430565b91505060208301516104f5602086018261049b565b50604083015161050860408601826104b4565b508091505092915050565b600061051f83836104c3565b905092915050565b6000602082019050919050565b600061053f826103ad565b61054981856103b8565b93508360208202850161055b856103c9565b8060005b8581101561059757848403895281516105788582610513565b945061058383610527565b925060208a0199505060018101905061055f565b50829750879550505050505092915050565b600060208201905081810360008301526105c38184610534565b905092915050565b6000604051905090565b600080fd5b600080fd5b600080fd5b600080fd5b7f4e487b7100000000000000000000000000000000000000000000000000000000600052604160045260246000fd5b6106218261041f565b810181811067ffffffffffffffff821117156106405761063f6105e9565b5b80604052505050565b60006106536105cb565b905061065f8282610618565b919050565b600067ffffffffffffffff82111561067f5761067e6105e9565b5b6106888261041f565b9050602081019050919050565b82818337600083830152505050565b60006106b76106b284610664565b610649565b9050828152602081018484840111156106d3576106d26105e4565b5b6106de848285610695565b509392505050565b600082601f8301126106fb576106fa6105df565b5b813561070b8482602086016106a4565b91505092915050565b60006020828403121561072a576107296105d5565b5b600082013567ffffffffffffffff811115610748576107476105da565b5b610754848285016106e6565b91505092915050565b610766816104aa565b811461077157600080fd5b50565b6000813590506107838161075d565b92915050565b60006020828403121561079f5761079e6105d5565b5b60006107ad84828501610774565b91505092915050565b600082825260208201905092915050565b60006107d2826103d9565b6107dc81856107b6565b93506107ec8185602086016103f5565b6107f58161041f565b840191505092915050565b61080981610489565b82525050565b610818816104aa565b82525050565b6000606082019050818103600083015261083881866107c7565b90506108476020830185610800565b610854604083018461080f565b949350505050565b7f4e487b7100000000000000000000000000000000000000000000000000000000600052602260045260246000fd5b600060028204905060018216806108a357607f821691505b6020821081036108b6576108b561085c565b5b50919050565b60008190508160005260206000209050919050565b60006020601f8301049050919050565b600082821b905092915050565b60006008830261091e7fffffffffffffffffffffffffffffffffffffffffffffffffffffffffffffffff826108e1565b61092886836108e1565b95508019841693508086168417925050509392505050565b6000819050919050565b600061096561096061095b846104aa565b610940565b6104aa565b9050919050565b6000819050919050565b61097f8361094a565b61099361098b8261096c565b8484546108ee565b825550505050565b600090565b6109a861099b565b6109b3818484610976565b505050565b5b818110156109d7576109cc6000826109a0565b6001810190506109b9565b5050565b601f821115610a1c576109ed816108bc565b6109f6846108d1565b81016020851015610a05578190505b610a19610a11856108d1565b8301826109b8565b50505b505050565b600082821c905092915050565b6000610a3f60001984600802610a21565b1980831691505092915050565b6000610a588383610a2e565b9150826002028217905092915050565b610a71826103d9565b67ffffffffffffffff811115610a8a57610a896105e9565b5b610a94825461088b565b610a9f8282856109db565b600060209050601f831160018114610ad25760008415610ac0578287015190505b610aca8582610a4c565b865550610b32565b601f198416610ae0866108bc565b60005b82811015610b0857848901518255600182019150602085019450602081019050610ae3565b86831015610b255784890151610b21601f891682610a2e565b8355505b6001600288020188555050505b50505050505056fea26469706673582212205562dd11c901a1a514781c3b84dfb434d92bd7591590d87dbd3dce8bf480998464736f6c63430008110033",
  "linkReferences": {},
  "deployedLinkReferences": {}
}